{
    "_format": "hh-sol-artifact-1",
    "contractName": "GitHubSplits",
    "sourceName": "contracts/GitHubSplits.sol",
    "abi": [
        {
            "inputs": [],
            "stateMutability": "nonpayable",
            "type": "constructor"
        },
        {
            "inputs": [
                {
                    "internalType": "address",
                    "name": "target",
                    "type": "address"
                }
            ],
            "name": "AddressEmptyCode",
            "type": "error"
        },
        {
            "inputs": [
                {
                    "internalType": "address",
                    "name": "implementation",
                    "type": "address"
                }
            ],
            "name": "ERC1967InvalidImplementation",
            "type": "error"
        },
        {
            "inputs": [],
            "name": "ERC1967NonPayable",
            "type": "error"
        },
        {
            "inputs": [],
            "name": "FailedCall",
            "type": "error"
        },
        {
            "inputs": [],
            "name": "InvalidInitialization",
            "type": "error"
        },
        {
            "inputs": [],
            "name": "NotInitializing",
            "type": "error"
        },
        {
            "inputs": [
                {
                    "internalType": "address",
                    "name": "owner",
                    "type": "address"
                }
            ],
            "name": "OwnableInvalidOwner",
            "type": "error"
        },
        {
            "inputs": [
                {
                    "internalType": "address",
                    "name": "account",
                    "type": "address"
                }
            ],
            "name": "OwnableUnauthorizedAccount",
            "type": "error"
        },
        {
            "inputs": [],
            "name": "UUPSUnauthorizedCallContext",
            "type": "error"
        },
        {
            "inputs": [
                {
                    "internalType": "bytes32",
                    "name": "slot",
                    "type": "bytes32"
                }
            ],
            "name": "UUPSUnsupportedProxiableUUID",
            "type": "error"
        },
        {
            "anonymous": false,
            "inputs": [
                {
                    "indexed": true,
                    "internalType": "address",
                    "name": "donor",
                    "type": "address"
                },
                {
                    "indexed": false,
                    "internalType": "uint256",
                    "name": "amount",
                    "type": "uint256"
                }
            ],
            "name": "Donation",
            "type": "event"
        },
        {
            "anonymous": false,
            "inputs": [
                {
                    "indexed": true,
                    "internalType": "string",
                    "name": "githubUsername",
                    "type": "string"
                },
                {
                    "indexed": false,
                    "internalType": "uint256",
                    "name": "amount",
                    "type": "uint256"
                }
            ],
            "name": "FundsClaimed",
            "type": "event"
        },
        {
            "anonymous": false,
            "inputs": [
                {
                    "indexed": true,
                    "internalType": "address",
                    "name": "owner",
                    "type": "address"
                },
                {
                    "indexed": false,
                    "internalType": "uint256",
                    "name": "amount",
                    "type": "uint256"
                }
            ],
            "name": "FundsWithdrawn",
            "type": "event"
        },
        {
            "anonymous": false,
            "inputs": [
                {
                    "indexed": false,
                    "internalType": "uint64",
                    "name": "version",
                    "type": "uint64"
                }
            ],
            "name": "Initialized",
            "type": "event"
        },
        {
            "anonymous": false,
            "inputs": [
                {
                    "indexed": true,
                    "internalType": "address",
                    "name": "previousOwner",
                    "type": "address"
                },
                {
                    "indexed": true,
                    "internalType": "address",
                    "name": "newOwner",
                    "type": "address"
                }
            ],
            "name": "OwnershipTransferred",
            "type": "event"
        },
        {
            "anonymous": false,
            "inputs": [
                {
                    "indexed": true,
                    "internalType": "string",
                    "name": "githubUsername",
                    "type": "string"
                },
                {
                    "indexed": false,
                    "internalType": "uint256",
                    "name": "shareAmount",
                    "type": "uint256"
                }
            ],
            "name": "ShareAdded",
            "type": "event"
        },
        {
            "anonymous": false,
            "inputs": [
                {
                    "indexed": true,
                    "internalType": "address",
                    "name": "implementation",
                    "type": "address"
                }
            ],
            "name": "Upgraded",
            "type": "event"
        },
        {
            "inputs": [],
            "name": "UPGRADE_INTERFACE_VERSION",
            "outputs": [
                {
                    "internalType": "string",
                    "name": "",
                    "type": "string"
                }
            ],
            "stateMutability": "view",
            "type": "function"
        },
        {
            "inputs": [
                {
                    "internalType": "string",
                    "name": "githubUsername",
                    "type": "string"
                },
                {
                    "internalType": "uint256",
                    "name": "shareAmount",
                    "type": "uint256"
                }
            ],
            "name": "addShare",
            "outputs": [],
            "stateMutability": "nonpayable",
            "type": "function"
        },
        {
            "inputs": [
                {
                    "internalType": "bytes32",
                    "name": "_bytes32",
                    "type": "bytes32"
                }
            ],
            "name": "bytes32ToString",
            "outputs": [
                {
                    "internalType": "string",
                    "name": "",
                    "type": "string"
                }
            ],
            "stateMutability": "pure",
            "type": "function"
        },
        {
            "inputs": [
                {
                    "internalType": "string",
                    "name": "githubUsername",
                    "type": "string"
                },
                {
                    "internalType": "bytes",
                    "name": "proof",
                    "type": "bytes"
                }
            ],
            "name": "claim",
            "outputs": [],
            "stateMutability": "nonpayable",
            "type": "function"
        },
        {
            "inputs": [],
            "name": "donate",
            "outputs": [],
            "stateMutability": "payable",
            "type": "function"
        },
        {
            "inputs": [],
            "name": "getAllShares",
            "outputs": [
                {
                    "internalType": "string[]",
                    "name": "",
                    "type": "string[]"
                },
                {
                    "internalType": "uint256[]",
                    "name": "",
                    "type": "uint256[]"
                }
            ],
            "stateMutability": "view",
            "type": "function"
        },
        {
            "inputs": [],
            "name": "getContractBalance",
            "outputs": [
                {
                    "internalType": "uint256",
                    "name": "",
                    "type": "uint256"
                }
            ],
            "stateMutability": "view",
            "type": "function"
        },
        {
            "inputs": [
                {
                    "internalType": "string",
                    "name": "githubUsername",
                    "type": "string"
                }
            ],
            "name": "getShare",
            "outputs": [
                {
                    "internalType": "uint256",
                    "name": "",
                    "type": "uint256"
                }
            ],
            "stateMutability": "view",
            "type": "function"
        },
        {
            "inputs": [
                {
                    "internalType": "string",
                    "name": "githubUsername",
                    "type": "string"
                }
            ],
            "name": "hasShares",
            "outputs": [
                {
                    "internalType": "bool",
                    "name": "",
                    "type": "bool"
                }
            ],
            "stateMutability": "view",
            "type": "function"
        },
        {
            "inputs": [],
            "name": "initialize",
            "outputs": [],
            "stateMutability": "nonpayable",
            "type": "function"
        },
        {
            "inputs": [],
            "name": "owner",
            "outputs": [
                {
                    "internalType": "address",
                    "name": "",
                    "type": "address"
                }
            ],
            "stateMutability": "view",
            "type": "function"
        },
        {
            "inputs": [],
            "name": "proxiableUUID",
            "outputs": [
                {
                    "internalType": "bytes32",
                    "name": "",
                    "type": "bytes32"
                }
            ],
            "stateMutability": "view",
            "type": "function"
        },
        {
            "inputs": [],
            "name": "renounceOwnership",
            "outputs": [],
            "stateMutability": "nonpayable",
            "type": "function"
        },
        {
            "inputs": [
                {
                    "internalType": "bytes32",
                    "name": "",
                    "type": "bytes32"
                }
            ],
            "name": "shares",
            "outputs": [
                {
                    "internalType": "uint256",
                    "name": "",
                    "type": "uint256"
                }
            ],
            "stateMutability": "view",
            "type": "function"
        },
        {
            "inputs": [],
            "name": "totalShares",
            "outputs": [
                {
                    "internalType": "uint256",
                    "name": "",
                    "type": "uint256"
                }
            ],
            "stateMutability": "view",
            "type": "function"
        },
        {
            "inputs": [
                {
                    "internalType": "address",
                    "name": "newOwner",
                    "type": "address"
                }
            ],
            "name": "transferOwnership",
            "outputs": [],
            "stateMutability": "nonpayable",
            "type": "function"
        },
        {
            "inputs": [
                {
                    "internalType": "address",
                    "name": "newImplementation",
                    "type": "address"
                },
                {
                    "internalType": "bytes",
                    "name": "data",
                    "type": "bytes"
                }
            ],
            "name": "upgradeToAndCall",
            "outputs": [],
            "stateMutability": "payable",
            "type": "function"
        },
        {
            "inputs": [
                {
                    "internalType": "uint256",
                    "name": "",
                    "type": "uint256"
                }
            ],
            "name": "usernames",
            "outputs": [
                {
                    "internalType": "bytes32",
                    "name": "",
                    "type": "bytes32"
                }
            ],
            "stateMutability": "view",
            "type": "function"
        },
        {
            "inputs": [],
            "name": "withdraw",
            "outputs": [],
            "stateMutability": "nonpayable",
            "type": "function"
        },
        {
            "stateMutability": "payable",
            "type": "receive"
        }
    ],
    "bytecode": "0x60a06040523073ffffffffffffffffffffffffffffffffffffffff1660809073ffffffffffffffffffffffffffffffffffffffff168152503480156200004457600080fd5b50620000556200005b60201b60201c565b620001cf565b60006200006d6200016560201b60201c565b90508060000160089054906101000a900460ff1615620000b9576040517ff92ee8a900000000000000000000000000000000000000000000000000000000815260040160405180910390fd5b67ffffffffffffffff80168160000160009054906101000a900467ffffffffffffffff1667ffffffffffffffff1614620001625767ffffffffffffffff8160000160006101000a81548167ffffffffffffffff021916908367ffffffffffffffff1602179055507fc7f505b2f371ae2175ee4913f4499e1f2633a7b5936321eed1cdaeb6115181d267ffffffffffffffff604051620001599190620001b2565b60405180910390a15b50565b60007ff0c57e16840df040f15088dc2f81fe391c3923bec73e23a9662efc9c229c6a00905090565b600067ffffffffffffffff82169050919050565b620001ac816200018d565b82525050565b6000602082019050620001c96000830184620001a1565b92915050565b6080516127c6620001f96000396000818161113d01528181611192015261134d01526127c66000f3fe6080604052600436106101185760003560e01c8063715018a6116100a0578063bfd6be1311610064578063bfd6be13146103b3578063de963ff1146103df578063ed88c68e1461041c578063f2fde38b14610426578063f440b9551461044f5761016d565b8063715018a6146102f25780638129fc1c146103095780638da5cb5b146103205780639201de551461034b578063ad3cb1cc146103885761016d565b80633a98ef39116100e75780633a98ef391461023e5780633ccfd60b146102695780634f1ef2861461028057806352d1902d1461029c5780636f9fb98a146102c75761016d565b80630bfc803d14610172578063136dd9631461019b5780631b208531146101d857806326dc8ada146102155761016d565b3661016d573373ffffffffffffffffffffffffffffffffffffffff167f5d8bc849764969eb1bcc6d0a2f55999d0167c1ccec240a4f39cf664ca9c4148e346040516101639190611954565b60405180910390a2005b600080fd5b34801561017e57600080fd5b5061019960048036038101906101949190611b6a565b61048c565b005b3480156101a757600080fd5b506101c260048036038101906101bd9190611c0e565b610687565b6040516101cf9190611c54565b60405180910390f35b3480156101e457600080fd5b506101ff60048036038101906101fa9190611c6f565b6106ab565b60405161020c9190611cd3565b60405180910390f35b34801561022157600080fd5b5061023c60048036038101906102379190611cee565b6106d7565b005b34801561024a57600080fd5b50610253610852565b6040516102609190611954565b60405180910390f35b34801561027557600080fd5b5061027e610858565b005b61029a60048036038101906102959190611da8565b610971565b005b3480156102a857600080fd5b506102b1610990565b6040516102be9190611c54565b60405180910390f35b3480156102d357600080fd5b506102dc6109c3565b6040516102e99190611954565b60405180910390f35b3480156102fe57600080fd5b506103076109cb565b005b34801561031557600080fd5b5061031e6109df565b005b34801561032c57600080fd5b50610335610b75565b6040516103429190611e13565b60405180910390f35b34801561035757600080fd5b50610372600480360381019061036d9190611e5a565b610bad565b60405161037f9190611f06565b60405180910390f35b34801561039457600080fd5b5061039d610d48565b6040516103aa9190611f06565b60405180910390f35b3480156103bf57600080fd5b506103c8610d81565b6040516103d69291906120f2565b60405180910390f35b3480156103eb57600080fd5b5061040660048036038101906104019190611e5a565b610eec565b6040516104139190611954565b60405180910390f35b610424610f04565b005b34801561043257600080fd5b5061044d60048036038101906104489190612129565b610f97565b005b34801561045b57600080fd5b5061047660048036038101906104719190611c6f565b61101d565b6040516104839190611954565b60405180910390f35b600061049783611046565b9050600080600083815260200190815260200160002054116104ee576040517f08c379a00000000000000000000000000000000000000000000000000000000081526004016104e5906121c8565b60405180910390fd5b6104f8838361106f565b610537576040517f08c379a000000000000000000000000000000000000000000000000000000000815260040161052e90612234565b60405180910390fd5b60006105428261107b565b905060008083815260200190815260200160002054600160008282546105689190612283565b9250508190555060008060008481526020019081526020016000208190555060003373ffffffffffffffffffffffffffffffffffffffff16826040516105ad906122e8565b60006040518083038185875af1925050503d80600081146105ea576040519150601f19603f3d011682016040523d82523d6000602084013e6105ef565b606091505b5050905080610633576040517f08c379a000000000000000000000000000000000000000000000000000000000815260040161062a90612349565b60405180910390fd5b8460405161064191906123a5565b60405180910390207f98a84928d7125a440576db76d2956413befc691bf79f791569ab450cb22810a1836040516106789190611954565b60405180910390a25050505050565b6002818154811061069757600080fd5b906000526020600020016000915090505481565b6000806106b783611046565b905060008060008381526020019081526020016000205411915050919050565b6106df6110b4565b60008111610722576040517f08c379a00000000000000000000000000000000000000000000000000000000081526004016107199061242e565b60405180910390fd5b602082511115610767576040517f08c379a000000000000000000000000000000000000000000000000000000000815260040161075e9061249a565b60405180910390fd5b600061077283611046565b9050600080600083815260200190815260200160002054036107b85760028190806001815401808255809150506001900390600052602060002001600090919091909150555b81600080838152602001908152602001600020546001546107d99190612283565b6107e391906124ba565b60018190555081600080838152602001908152602001600020819055508260405161080e91906123a5565b60405180910390207f97a1257ec7c354f5ea22832c6ca0781cb37f7a054f7b32f14e48c120b3a55fa7836040516108459190611954565b60405180910390a2505050565b60015481565b6108606110b4565b6000479050600061086f610b75565b73ffffffffffffffffffffffffffffffffffffffff1682604051610892906122e8565b60006040518083038185875af1925050503d80600081146108cf576040519150601f19603f3d011682016040523d82523d6000602084013e6108d4565b606091505b5050905080610918576040517f08c379a000000000000000000000000000000000000000000000000000000000815260040161090f90612349565b60405180910390fd5b610920610b75565b73ffffffffffffffffffffffffffffffffffffffff167feaff4b37086828766ad3268786972c0cd24259d4c87a80f9d3963a3c3d999b0d836040516109659190611954565b60405180910390a25050565b61097961113b565b61098282611221565b61098c828261122c565b5050565b600061099a61134b565b7f360894a13ba1a3210667c828492db98dca3e2076cc3735a920a3ca505d382bbc60001b905090565b600047905090565b6109d36110b4565b6109dd60006113d2565b565b60006109e96114a9565b905060008160000160089054906101000a900460ff1615905060008260000160009054906101000a900467ffffffffffffffff1690506000808267ffffffffffffffff16148015610a375750825b9050600060018367ffffffffffffffff16148015610a6c575060003073ffffffffffffffffffffffffffffffffffffffff163b145b905081158015610a7a575080155b15610ab1576040517ff92ee8a900000000000000000000000000000000000000000000000000000000815260040160405180910390fd5b60018560000160006101000a81548167ffffffffffffffff021916908367ffffffffffffffff1602179055508315610b015760018560000160086101000a81548160ff0219169083151502179055505b610b0a336114d1565b610b126114e5565b8315610b6e5760008560000160086101000a81548160ff0219169083151502179055507fc7f505b2f371ae2175ee4913f4499e1f2633a7b5936321eed1cdaeb6115181d26001604051610b659190612547565b60405180910390a15b5050505050565b600080610b806114ef565b90508060000160009054906101000a900473ffffffffffffffffffffffffffffffffffffffff1691505090565b606060005b60208160ff16108015610c045750600060f81b838260ff1660208110610bdb57610bda612562565b5b1a60f81b7effffffffffffffffffffffffffffffffffffffffffffffffffffffffffffff191614155b15610c1c578080610c149061259e565b915050610bb2565b60008160ff1667ffffffffffffffff811115610c3b57610c3a61199e565b5b6040519080825280601f01601f191660200182016040528015610c6d5781602001600182028036833780820191505090505b509050600091505b60208260ff16108015610cc75750600060f81b848360ff1660208110610c9e57610c9d612562565b5b1a60f81b7effffffffffffffffffffffffffffffffffffffffffffffffffffffffffffff191614155b15610d3e57838260ff1660208110610ce257610ce1612562565b5b1a60f81b818360ff1681518110610cfc57610cfb612562565b5b60200101907effffffffffffffffffffffffffffffffffffffffffffffffffffffffffffff1916908160001a9053508180610d369061259e565b925050610c75565b8092505050919050565b6040518060400160405280600581526020017f352e302e3000000000000000000000000000000000000000000000000000000081525081565b606080600060028054905067ffffffffffffffff811115610da557610da461199e565b5b604051908082528060200260200182016040528015610dd857816020015b6060815260200190600190039081610dc35790505b509050600060028054905067ffffffffffffffff811115610dfc57610dfb61199e565b5b604051908082528060200260200182016040528015610e2a5781602001602082028036833780820191505090505b50905060005b600280549050811015610edf57610e6460028281548110610e5457610e53612562565b5b9060005260206000200154610bad565b838281518110610e7757610e76612562565b5b602002602001018190525060008060028381548110610e9957610e98612562565b5b9060005260206000200154815260200190815260200160002054828281518110610ec657610ec5612562565b5b6020026020010181815250508080600101915050610e30565b5081819350935050509091565b60006020528060005260406000206000915090505481565b60003411610f47576040517f08c379a0000000000000000000000000000000000000000000000000000000008152600401610f3e90612639565b60405180910390fd5b3373ffffffffffffffffffffffffffffffffffffffff167f5d8bc849764969eb1bcc6d0a2f55999d0167c1ccec240a4f39cf664ca9c4148e34604051610f8d9190611954565b60405180910390a2565b610f9f6110b4565b600073ffffffffffffffffffffffffffffffffffffffff168173ffffffffffffffffffffffffffffffffffffffff16036110115760006040517f1e4fbdf70000000000000000000000000000000000000000000000000000000081526004016110089190611e13565b60405180910390fd5b61101a816113d2565b50565b60008061102983611046565b905060008082815260200190815260200160002054915050919050565b6000808290506000815103611061576000801b91505061106a565b60208301519150505b919050565b60006001905092915050565b60008047905060015460008085815260200190815260200160002054826110a29190612659565b6110ac91906126ca565b915050919050565b6110bc611517565b73ffffffffffffffffffffffffffffffffffffffff166110da610b75565b73ffffffffffffffffffffffffffffffffffffffff1614611139576110fd611517565b6040517f118cdaa70000000000000000000000000000000000000000000000000000000081526004016111309190611e13565b60405180910390fd5b565b7f000000000000000000000000000000000000000000000000000000000000000073ffffffffffffffffffffffffffffffffffffffff163073ffffffffffffffffffffffffffffffffffffffff1614806111e857507f000000000000000000000000000000000000000000000000000000000000000073ffffffffffffffffffffffffffffffffffffffff166111cf61151f565b73ffffffffffffffffffffffffffffffffffffffff1614155b1561121f576040517fe07c8dba00000000000000000000000000000000000000000000000000000000815260040160405180910390fd5b565b6112296110b4565b50565b8173ffffffffffffffffffffffffffffffffffffffff166352d1902d6040518163ffffffff1660e01b8152600401602060405180830381865afa92505050801561129457506040513d601f19601f820116820180604052508101906112919190612710565b60015b6112d557816040517f4c9c8ce30000000000000000000000000000000000000000000000000000000081526004016112cc9190611e13565b60405180910390fd5b7f360894a13ba1a3210667c828492db98dca3e2076cc3735a920a3ca505d382bbc60001b811461133c57806040517faa1d49a40000000000000000000000000000000000000000000000000000000081526004016113339190611c54565b60405180910390fd5b6113468383611576565b505050565b7f000000000000000000000000000000000000000000000000000000000000000073ffffffffffffffffffffffffffffffffffffffff163073ffffffffffffffffffffffffffffffffffffffff16146113d0576040517fe07c8dba00000000000000000000000000000000000000000000000000000000815260040160405180910390fd5b565b60006113dc6114ef565b905060008160000160009054906101000a900473ffffffffffffffffffffffffffffffffffffffff169050828260000160006101000a81548173ffffffffffffffffffffffffffffffffffffffff021916908373ffffffffffffffffffffffffffffffffffffffff1602179055508273ffffffffffffffffffffffffffffffffffffffff168173ffffffffffffffffffffffffffffffffffffffff167f8be0079c531659141344cd1fd0a4f28419497f9722a3daafe3b4186f6b6457e060405160405180910390a3505050565b60007ff0c57e16840df040f15088dc2f81fe391c3923bec73e23a9662efc9c229c6a00905090565b6114d96115e9565b6114e281611629565b50565b6114ed6115e9565b565b60007f9016d09d72d40fdae2fd8ceac6b6234c7706214fd39c1cd1e609a0528c199300905090565b600033905090565b600061154d7f360894a13ba1a3210667c828492db98dca3e2076cc3735a920a3ca505d382bbc60001b6116af565b60000160009054906101000a900473ffffffffffffffffffffffffffffffffffffffff16905090565b61157f826116b9565b8173ffffffffffffffffffffffffffffffffffffffff167fbc7cd75a20ee27fd9adebab32041f755214dbc6bffa90cc0225b39da2e5c2d3b60405160405180910390a26000815111156115dc576115d68282611786565b506115e5565b6115e461180a565b5b5050565b6115f1611847565b611627576040517fd7e6bcf800000000000000000000000000000000000000000000000000000000815260040160405180910390fd5b565b6116316115e9565b600073ffffffffffffffffffffffffffffffffffffffff168173ffffffffffffffffffffffffffffffffffffffff16036116a35760006040517f1e4fbdf700000000000000000000000000000000000000000000000000000000815260040161169a9190611e13565b60405180910390fd5b6116ac816113d2565b50565b6000819050919050565b60008173ffffffffffffffffffffffffffffffffffffffff163b0361171557806040517f4c9c8ce300000000000000000000000000000000000000000000000000000000815260040161170c9190611e13565b60405180910390fd5b806117427f360894a13ba1a3210667c828492db98dca3e2076cc3735a920a3ca505d382bbc60001b6116af565b60000160006101000a81548173ffffffffffffffffffffffffffffffffffffffff021916908373ffffffffffffffffffffffffffffffffffffffff16021790555050565b60606000808473ffffffffffffffffffffffffffffffffffffffff16846040516117b09190612779565b600060405180830381855af49150503d80600081146117eb576040519150601f19603f3d011682016040523d82523d6000602084013e6117f0565b606091505b5091509150611800858383611867565b9250505092915050565b6000341115611845576040517fb398979f00000000000000000000000000000000000000000000000000000000815260040160405180910390fd5b565b60006118516114a9565b60000160089054906101000a900460ff16905090565b60608261187c57611877826118f6565b6118ee565b600082511480156118a4575060008473ffffffffffffffffffffffffffffffffffffffff163b145b156118e657836040517f9996b3150000000000000000000000000000000000000000000000000000000081526004016118dd9190611e13565b60405180910390fd5b8190506118ef565b5b9392505050565b6000815111156119095780518082602001fd5b6040517fd6bda27500000000000000000000000000000000000000000000000000000000815260040160405180910390fd5b6000819050919050565b61194e8161193b565b82525050565b60006020820190506119696000830184611945565b92915050565b6000604051905090565b600080fd5b600080fd5b600080fd5b600080fd5b6000601f19601f8301169050919050565b7f4e487b7100000000000000000000000000000000000000000000000000000000600052604160045260246000fd5b6119d68261198d565b810181811067ffffffffffffffff821117156119f5576119f461199e565b5b80604052505050565b6000611a0861196f565b9050611a1482826119cd565b919050565b600067ffffffffffffffff821115611a3457611a3361199e565b5b611a3d8261198d565b9050602081019050919050565b82818337600083830152505050565b6000611a6c611a6784611a19565b6119fe565b905082815260208101848484011115611a8857611a87611988565b5b611a93848285611a4a565b509392505050565b600082601f830112611ab057611aaf611983565b5b8135611ac0848260208601611a59565b91505092915050565b600067ffffffffffffffff821115611ae457611ae361199e565b5b611aed8261198d565b9050602081019050919050565b6000611b0d611b0884611ac9565b6119fe565b905082815260208101848484011115611b2957611b28611988565b5b611b34848285611a4a565b509392505050565b600082601f830112611b5157611b50611983565b5b8135611b61848260208601611afa565b91505092915050565b60008060408385031215611b8157611b80611979565b5b600083013567ffffffffffffffff811115611b9f57611b9e61197e565b5b611bab85828601611a9b565b925050602083013567ffffffffffffffff811115611bcc57611bcb61197e565b5b611bd885828601611b3c565b9150509250929050565b611beb8161193b565b8114611bf657600080fd5b50565b600081359050611c0881611be2565b92915050565b600060208284031215611c2457611c23611979565b5b6000611c3284828501611bf9565b91505092915050565b6000819050919050565b611c4e81611c3b565b82525050565b6000602082019050611c696000830184611c45565b92915050565b600060208284031215611c8557611c84611979565b5b600082013567ffffffffffffffff811115611ca357611ca261197e565b5b611caf84828501611a9b565b91505092915050565b60008115159050919050565b611ccd81611cb8565b82525050565b6000602082019050611ce86000830184611cc4565b92915050565b60008060408385031215611d0557611d04611979565b5b600083013567ffffffffffffffff811115611d2357611d2261197e565b5b611d2f85828601611a9b565b9250506020611d4085828601611bf9565b9150509250929050565b600073ffffffffffffffffffffffffffffffffffffffff82169050919050565b6000611d7582611d4a565b9050919050565b611d8581611d6a565b8114611d9057600080fd5b50565b600081359050611da281611d7c565b92915050565b60008060408385031215611dbf57611dbe611979565b5b6000611dcd85828601611d93565b925050602083013567ffffffffffffffff811115611dee57611ded61197e565b5b611dfa85828601611b3c565b9150509250929050565b611e0d81611d6a565b82525050565b6000602082019050611e286000830184611e04565b92915050565b611e3781611c3b565b8114611e4257600080fd5b50565b600081359050611e5481611e2e565b92915050565b600060208284031215611e7057611e6f611979565b5b6000611e7e84828501611e45565b91505092915050565b600081519050919050565b600082825260208201905092915050565b60005b83811015611ec1578082015181840152602081019050611ea6565b60008484015250505050565b6000611ed882611e87565b611ee28185611e92565b9350611ef2818560208601611ea3565b611efb8161198d565b840191505092915050565b60006020820190508181036000830152611f208184611ecd565b905092915050565b600081519050919050565b600082825260208201905092915050565b6000819050602082019050919050565b600082825260208201905092915050565b6000611f7082611e87565b611f7a8185611f54565b9350611f8a818560208601611ea3565b611f938161198d565b840191505092915050565b6000611faa8383611f65565b905092915050565b6000602082019050919050565b6000611fca82611f28565b611fd48185611f33565b935083602082028501611fe685611f44565b8060005b8581101561202257848403895281516120038582611f9e565b945061200e83611fb2565b925060208a01995050600181019050611fea565b50829750879550505050505092915050565b600081519050919050565b600082825260208201905092915050565b6000819050602082019050919050565b6120698161193b565b82525050565b600061207b8383612060565b60208301905092915050565b6000602082019050919050565b600061209f82612034565b6120a9818561203f565b93506120b483612050565b8060005b838110156120e55781516120cc888261206f565b97506120d783612087565b9250506001810190506120b8565b5085935050505092915050565b6000604082019050818103600083015261210c8185611fbf565b905081810360208301526121208184612094565b90509392505050565b60006020828403121561213f5761213e611979565b5b600061214d84828501611d93565b91505092915050565b7f4e6f2073686172657320666f72207468697320476974487562206163636f756e60008201527f7400000000000000000000000000000000000000000000000000000000000000602082015250565b60006121b2602183611e92565b91506121bd82612156565b604082019050919050565b600060208201905081810360008301526121e1816121a5565b9050919050565b7f496e76616c69642070726f6f6600000000000000000000000000000000000000600082015250565b600061221e600d83611e92565b9150612229826121e8565b602082019050919050565b6000602082019050818103600083015261224d81612211565b9050919050565b7f4e487b7100000000000000000000000000000000000000000000000000000000600052601160045260246000fd5b600061228e8261193b565b91506122998361193b565b92508282039050818111156122b1576122b0612254565b5b92915050565b600081905092915050565b50565b60006122d26000836122b7565b91506122dd826122c2565b600082019050919050565b60006122f3826122c5565b9150819050919050565b7f5472616e73666572206661696c65640000000000000000000000000000000000600082015250565b6000612333600f83611e92565b915061233e826122fd565b602082019050919050565b6000602082019050818103600083015261236281612326565b9050919050565b600081905092915050565b600061237f82611e87565b6123898185612369565b9350612399818560208601611ea3565b80840191505092915050565b60006123b18284612374565b915081905092915050565b7f536861726520616d6f756e74206d75737420626520677265617465722074686160008201527f6e207a65726f0000000000000000000000000000000000000000000000000000602082015250565b6000612418602683611e92565b9150612423826123bc565b604082019050919050565b600060208201905081810360008301526124478161240b565b9050919050565b7f557365726e616d6520746f6f206c6f6e67000000000000000000000000000000600082015250565b6000612484601183611e92565b915061248f8261244e565b602082019050919050565b600060208201905081810360008301526124b381612477565b9050919050565b60006124c58261193b565b91506124d08361193b565b92508282019050808211156124e8576124e7612254565b5b92915050565b6000819050919050565b600067ffffffffffffffff82169050919050565b6000819050919050565b600061253161252c612527846124ee565b61250c565b6124f8565b9050919050565b61254181612516565b82525050565b600060208201905061255c6000830184612538565b92915050565b7f4e487b7100000000000000000000000000000000000000000000000000000000600052603260045260246000fd5b600060ff82169050919050565b60006125a982612591565b915060ff82036125bc576125bb612254565b5b600182019050919050565b7f446f6e6174696f6e20616d6f756e74206d75737420626520677265617465722060008201527f7468616e207a65726f0000000000000000000000000000000000000000000000602082015250565b6000612623602983611e92565b915061262e826125c7565b604082019050919050565b6000602082019050818103600083015261265281612616565b9050919050565b60006126648261193b565b915061266f8361193b565b925082820261267d8161193b565b9150828204841483151761269457612693612254565b5b5092915050565b7f4e487b7100000000000000000000000000000000000000000000000000000000600052601260045260246000fd5b60006126d58261193b565b91506126e08361193b565b9250826126f0576126ef61269b565b5b828204905092915050565b60008151905061270a81611e2e565b92915050565b60006020828403121561272657612725611979565b5b6000612734848285016126fb565b91505092915050565b600081519050919050565b60006127538261273d565b61275d81856122b7565b935061276d818560208601611ea3565b80840191505092915050565b60006127858284612748565b91508190509291505056fea26469706673582212202eb8a8c97bdd73c83929f1cb475e9552fb9b4bf659accac0f04dd897ba9c123264736f6c63430008170033",
    "linkReferences": {},
    "deployedLinkReferences": {}
}