{
    "_format": "hh-sol-artifact-1",
    "contractName": "GitHubSplits",
    "sourceName": "contracts/GitHubSplits.sol",
    "abi": [
        {
            "inputs": [],
            "stateMutability": "nonpayable",
            "type": "constructor"
        },
        {
            "inputs": [
                {
                    "internalType": "address",
                    "name": "target",
                    "type": "address"
                }
            ],
            "name": "AddressEmptyCode",
            "type": "error"
        },
        {
            "inputs": [
                {
                    "internalType": "address",
                    "name": "implementation",
                    "type": "address"
                }
            ],
            "name": "ERC1967InvalidImplementation",
            "type": "error"
        },
        {
            "inputs": [],
            "name": "ERC1967NonPayable",
            "type": "error"
        },
        {
            "inputs": [],
            "name": "FailedCall",
            "type": "error"
        },
        {
            "inputs": [],
            "name": "InvalidInitialization",
            "type": "error"
        },
        {
            "inputs": [],
            "name": "NotInitializing",
            "type": "error"
        },
        {
            "inputs": [
                {
                    "internalType": "address",
                    "name": "owner",
                    "type": "address"
                }
            ],
            "name": "OwnableInvalidOwner",
            "type": "error"
        },
        {
            "inputs": [
                {
                    "internalType": "address",
                    "name": "account",
                    "type": "address"
                }
            ],
            "name": "OwnableUnauthorizedAccount",
            "type": "error"
        },
        {
            "inputs": [],
            "name": "UUPSUnauthorizedCallContext",
            "type": "error"
        },
        {
            "inputs": [
                {
                    "internalType": "bytes32",
                    "name": "slot",
                    "type": "bytes32"
                }
            ],
            "name": "UUPSUnsupportedProxiableUUID",
            "type": "error"
        },
        {
            "anonymous": false,
            "inputs": [
                {
                    "indexed": false,
                    "internalType": "string",
                    "name": "githubUsername",
                    "type": "string"
                },
                {
                    "indexed": false,
                    "internalType": "uint256",
                    "name": "amount",
                    "type": "uint256"
                }
            ],
            "name": "FundsClaimed",
            "type": "event"
        },
        {
            "anonymous": false,
            "inputs": [
                {
                    "indexed": false,
                    "internalType": "address",
                    "name": "owner",
                    "type": "address"
                },
                {
                    "indexed": false,
                    "internalType": "uint256",
                    "name": "amount",
                    "type": "uint256"
                }
            ],
            "name": "FundsWithdrawn",
            "type": "event"
        },
        {
            "anonymous": false,
            "inputs": [
                {
                    "indexed": false,
                    "internalType": "uint64",
                    "name": "version",
                    "type": "uint64"
                }
            ],
            "name": "Initialized",
            "type": "event"
        },
        {
            "anonymous": false,
            "inputs": [
                {
                    "indexed": true,
                    "internalType": "address",
                    "name": "previousOwner",
                    "type": "address"
                },
                {
                    "indexed": true,
                    "internalType": "address",
                    "name": "newOwner",
                    "type": "address"
                }
            ],
            "name": "OwnershipTransferred",
            "type": "event"
        },
        {
            "anonymous": false,
            "inputs": [
                {
                    "indexed": false,
                    "internalType": "string",
                    "name": "githubUsername",
                    "type": "string"
                },
                {
                    "indexed": false,
                    "internalType": "uint256",
                    "name": "shareAmount",
                    "type": "uint256"
                }
            ],
            "name": "ShareAdded",
            "type": "event"
        },
        {
            "anonymous": false,
            "inputs": [
                {
                    "indexed": true,
                    "internalType": "address",
                    "name": "implementation",
                    "type": "address"
                }
            ],
            "name": "Upgraded",
            "type": "event"
        },
        {
            "inputs": [],
            "name": "UPGRADE_INTERFACE_VERSION",
            "outputs": [
                {
                    "internalType": "string",
                    "name": "",
                    "type": "string"
                }
            ],
            "stateMutability": "view",
            "type": "function"
        },
        {
            "inputs": [
                {
                    "internalType": "string",
                    "name": "githubUsername",
                    "type": "string"
                },
                {
                    "internalType": "uint256",
                    "name": "shareAmount",
                    "type": "uint256"
                }
            ],
            "name": "addShare",
            "outputs": [],
            "stateMutability": "nonpayable",
            "type": "function"
        },
        {
            "inputs": [
                {
                    "internalType": "bytes32",
                    "name": "_bytes32",
                    "type": "bytes32"
                }
            ],
            "name": "bytes32ToString",
            "outputs": [
                {
                    "internalType": "string",
                    "name": "",
                    "type": "string"
                }
            ],
            "stateMutability": "pure",
            "type": "function"
        },
        {
            "inputs": [
                {
                    "internalType": "string",
                    "name": "githubUsername",
                    "type": "string"
                },
                {
                    "internalType": "bytes",
                    "name": "proof",
                    "type": "bytes"
                }
            ],
            "name": "claim",
            "outputs": [],
            "stateMutability": "nonpayable",
            "type": "function"
        },
        {
            "inputs": [],
            "name": "getAllShares",
            "outputs": [
                {
                    "internalType": "string[]",
                    "name": "",
                    "type": "string[]"
                },
                {
                    "internalType": "uint256[]",
                    "name": "",
                    "type": "uint256[]"
                }
            ],
            "stateMutability": "view",
            "type": "function"
        },
        {
            "inputs": [],
            "name": "getContractBalance",
            "outputs": [
                {
                    "internalType": "uint256",
                    "name": "",
                    "type": "uint256"
                }
            ],
            "stateMutability": "view",
            "type": "function"
        },
        {
            "inputs": [
                {
                    "internalType": "string",
                    "name": "githubUsername",
                    "type": "string"
                }
            ],
            "name": "getShare",
            "outputs": [
                {
                    "internalType": "uint256",
                    "name": "",
                    "type": "uint256"
                }
            ],
            "stateMutability": "view",
            "type": "function"
        },
        {
            "inputs": [
                {
                    "internalType": "string",
                    "name": "githubUsername",
                    "type": "string"
                }
            ],
            "name": "hasShares",
            "outputs": [
                {
                    "internalType": "bool",
                    "name": "",
                    "type": "bool"
                }
            ],
            "stateMutability": "view",
            "type": "function"
        },
        {
            "inputs": [],
            "name": "initialize",
            "outputs": [],
            "stateMutability": "nonpayable",
            "type": "function"
        },
        {
            "inputs": [],
            "name": "owner",
            "outputs": [
                {
                    "internalType": "address",
                    "name": "",
                    "type": "address"
                }
            ],
            "stateMutability": "view",
            "type": "function"
        },
        {
            "inputs": [],
            "name": "proxiableUUID",
            "outputs": [
                {
                    "internalType": "bytes32",
                    "name": "",
                    "type": "bytes32"
                }
            ],
            "stateMutability": "view",
            "type": "function"
        },
        {
            "inputs": [],
            "name": "renounceOwnership",
            "outputs": [],
            "stateMutability": "nonpayable",
            "type": "function"
        },
        {
            "inputs": [
                {
                    "internalType": "bytes32",
                    "name": "",
                    "type": "bytes32"
                }
            ],
            "name": "shares",
            "outputs": [
                {
                    "internalType": "uint256",
                    "name": "",
                    "type": "uint256"
                }
            ],
            "stateMutability": "view",
            "type": "function"
        },
        {
            "inputs": [],
            "name": "totalShares",
            "outputs": [
                {
                    "internalType": "uint256",
                    "name": "",
                    "type": "uint256"
                }
            ],
            "stateMutability": "view",
            "type": "function"
        },
        {
            "inputs": [
                {
                    "internalType": "address",
                    "name": "newOwner",
                    "type": "address"
                }
            ],
            "name": "transferOwnership",
            "outputs": [],
            "stateMutability": "nonpayable",
            "type": "function"
        },
        {
            "inputs": [
                {
                    "internalType": "address",
                    "name": "newImplementation",
                    "type": "address"
                },
                {
                    "internalType": "bytes",
                    "name": "data",
                    "type": "bytes"
                }
            ],
            "name": "upgradeToAndCall",
            "outputs": [],
            "stateMutability": "payable",
            "type": "function"
        },
        {
            "inputs": [
                {
                    "internalType": "uint256",
                    "name": "",
                    "type": "uint256"
                }
            ],
            "name": "usernames",
            "outputs": [
                {
                    "internalType": "bytes32",
                    "name": "",
                    "type": "bytes32"
                }
            ],
            "stateMutability": "view",
            "type": "function"
        },
        {
            "inputs": [],
            "name": "withdraw",
            "outputs": [],
            "stateMutability": "nonpayable",
            "type": "function"
        },
        {
            "stateMutability": "payable",
            "type": "receive"
        }
    ],
    "bytecode": "0x60a06040523073ffffffffffffffffffffffffffffffffffffffff1660809073ffffffffffffffffffffffffffffffffffffffff168152503480156200004457600080fd5b50620000556200005b60201b60201c565b620001cf565b60006200006d6200016560201b60201c565b90508060000160089054906101000a900460ff1615620000b9576040517ff92ee8a900000000000000000000000000000000000000000000000000000000815260040160405180910390fd5b67ffffffffffffffff80168160000160009054906101000a900467ffffffffffffffff1667ffffffffffffffff1614620001625767ffffffffffffffff8160000160006101000a81548167ffffffffffffffff021916908367ffffffffffffffff1602179055507fc7f505b2f371ae2175ee4913f4499e1f2633a7b5936321eed1cdaeb6115181d267ffffffffffffffff604051620001599190620001b2565b60405180910390a15b50565b60007ff0c57e16840df040f15088dc2f81fe391c3923bec73e23a9662efc9c229c6a00905090565b600067ffffffffffffffff82169050919050565b620001ac816200018d565b82525050565b6000602082019050620001c96000830184620001a1565b92915050565b608051612494620001f960003960008181610f3e01528181610f93015261114e01526124946000f3fe60806040526004361061010d5760003560e01c8063715018a611610095578063ad3cb1cc11610064578063ad3cb1cc1461032f578063bfd6be131461035a578063de963ff114610386578063f2fde38b146103c3578063f440b955146103ec57610114565b8063715018a6146102995780638129fc1c146102b05780638da5cb5b146102c75780639201de55146102f257610114565b80633a98ef39116100dc5780633a98ef39146101e55780633ccfd60b146102105780634f1ef2861461022757806352d1902d146102435780636f9fb98a1461026e57610114565b80630bfc803d14610119578063136dd963146101425780631b2085311461017f57806326dc8ada146101bc57610114565b3661011457005b600080fd5b34801561012557600080fd5b50610140600480360381019061013b9190611937565b610429565b005b34801561014e57600080fd5b50610169600480360381019061016491906119e5565b6105aa565b6040516101769190611a2b565b60405180910390f35b34801561018b57600080fd5b506101a660048036038101906101a19190611a46565b6105ce565b6040516101b39190611aaa565b60405180910390f35b3480156101c857600080fd5b506101e360048036038101906101de9190611ac5565b6105fa565b005b3480156101f157600080fd5b506101fa610761565b6040516102079190611b30565b60405180910390f35b34801561021c57600080fd5b50610225610767565b005b610241600480360381019061023c9190611ba9565b610805565b005b34801561024f57600080fd5b50610258610824565b6040516102659190611a2b565b60405180910390f35b34801561027a57600080fd5b50610283610857565b6040516102909190611b30565b60405180910390f35b3480156102a557600080fd5b506102ae61085f565b005b3480156102bc57600080fd5b506102c5610873565b005b3480156102d357600080fd5b506102dc610a09565b6040516102e99190611c14565b60405180910390f35b3480156102fe57600080fd5b5061031960048036038101906103149190611c5b565b610a41565b6040516103269190611d07565b60405180910390f35b34801561033b57600080fd5b50610344610bdc565b6040516103519190611d07565b60405180910390f35b34801561036657600080fd5b5061036f610c15565b60405161037d929190611ef3565b60405180910390f35b34801561039257600080fd5b506103ad60048036038101906103a89190611c5b565b610d80565b6040516103ba9190611b30565b60405180910390f35b3480156103cf57600080fd5b506103ea60048036038101906103e59190611f2a565b610d98565b005b3480156103f857600080fd5b50610413600480360381019061040e9190611a46565b610e1e565b6040516104209190611b30565b60405180910390f35b600061043483610e47565b90506000806000838152602001908152602001600020541161048b576040517f08c379a000000000000000000000000000000000000000000000000000000000815260040161048290611fc9565b60405180910390fd5b6104958383610e70565b6104d4576040517f08c379a00000000000000000000000000000000000000000000000000000000081526004016104cb90612035565b60405180910390fd5b60006104df82610e7c565b905060008083815260200190815260200160002054600160008282546105059190612084565b925050819055506000806000848152602001908152602001600020819055503373ffffffffffffffffffffffffffffffffffffffff166108fc829081150290604051600060405180830381858888f1935050505015801561056a573d6000803e3d6000fd5b507f98a84928d7125a440576db76d2956413befc691bf79f791569ab450cb22810a1848260405161059c9291906120b8565b60405180910390a150505050565b600281815481106105ba57600080fd5b906000526020600020016000915090505481565b6000806105da83610e47565b905060008060008381526020019081526020016000205411915050919050565b610602610eb5565b60008111610645576040517f08c379a000000000000000000000000000000000000000000000000000000000815260040161063c9061215a565b60405180910390fd5b60208251111561068a576040517f08c379a0000000000000000000000000000000000000000000000000000000008152600401610681906121c6565b60405180910390fd5b600061069583610e47565b9050600080600083815260200190815260200160002054036106db5760028190806001815401808255809150506001900390600052602060002001600090919091909150555b81600080838152602001908152602001600020546001546106fc9190612084565b61070691906121e6565b60018190555081600080838152602001908152602001600020819055507f97a1257ec7c354f5ea22832c6ca0781cb37f7a054f7b32f14e48c120b3a55fa783836040516107549291906120b8565b60405180910390a1505050565b60015481565b61076f610eb5565b600047905061077c610a09565b73ffffffffffffffffffffffffffffffffffffffff166108fc829081150290604051600060405180830381858888f193505050501580156107c1573d6000803e3d6000fd5b507feaff4b37086828766ad3268786972c0cd24259d4c87a80f9d3963a3c3d999b0d6107eb610a09565b826040516107fa92919061221a565b60405180910390a150565b61080d610f3c565b61081682611022565b610820828261102d565b5050565b600061082e61114c565b7f360894a13ba1a3210667c828492db98dca3e2076cc3735a920a3ca505d382bbc60001b905090565b600047905090565b610867610eb5565b61087160006111d3565b565b600061087d6112aa565b905060008160000160089054906101000a900460ff1615905060008260000160009054906101000a900467ffffffffffffffff1690506000808267ffffffffffffffff161480156108cb5750825b9050600060018367ffffffffffffffff16148015610900575060003073ffffffffffffffffffffffffffffffffffffffff163b145b90508115801561090e575080155b15610945576040517ff92ee8a900000000000000000000000000000000000000000000000000000000815260040160405180910390fd5b60018560000160006101000a81548167ffffffffffffffff021916908367ffffffffffffffff16021790555083156109955760018560000160086101000a81548160ff0219169083151502179055505b61099e336112d2565b6109a66112e6565b8315610a025760008560000160086101000a81548160ff0219169083151502179055507fc7f505b2f371ae2175ee4913f4499e1f2633a7b5936321eed1cdaeb6115181d260016040516109f9919061229c565b60405180910390a15b5050505050565b600080610a146112f0565b90508060000160009054906101000a900473ffffffffffffffffffffffffffffffffffffffff1691505090565b606060005b60208160ff16108015610a985750600060f81b838260ff1660208110610a6f57610a6e6122b7565b5b1a60f81b7effffffffffffffffffffffffffffffffffffffffffffffffffffffffffffff191614155b15610ab0578080610aa8906122f3565b915050610a46565b60008160ff1667ffffffffffffffff811115610acf57610ace61176b565b5b6040519080825280601f01601f191660200182016040528015610b015781602001600182028036833780820191505090505b509050600091505b60208260ff16108015610b5b5750600060f81b848360ff1660208110610b3257610b316122b7565b5b1a60f81b7effffffffffffffffffffffffffffffffffffffffffffffffffffffffffffff191614155b15610bd257838260ff1660208110610b7657610b756122b7565b5b1a60f81b818360ff1681518110610b9057610b8f6122b7565b5b60200101907effffffffffffffffffffffffffffffffffffffffffffffffffffffffffffff1916908160001a9053508180610bca906122f3565b925050610b09565b8092505050919050565b6040518060400160405280600581526020017f352e302e3000000000000000000000000000000000000000000000000000000081525081565b606080600060028054905067ffffffffffffffff811115610c3957610c3861176b565b5b604051908082528060200260200182016040528015610c6c57816020015b6060815260200190600190039081610c575790505b509050600060028054905067ffffffffffffffff811115610c9057610c8f61176b565b5b604051908082528060200260200182016040528015610cbe5781602001602082028036833780820191505090505b50905060005b600280549050811015610d7357610cf860028281548110610ce857610ce76122b7565b5b9060005260206000200154610a41565b838281518110610d0b57610d0a6122b7565b5b602002602001018190525060008060028381548110610d2d57610d2c6122b7565b5b9060005260206000200154815260200190815260200160002054828281518110610d5a57610d596122b7565b5b6020026020010181815250508080600101915050610cc4565b5081819350935050509091565b60006020528060005260406000206000915090505481565b610da0610eb5565b600073ffffffffffffffffffffffffffffffffffffffff168173ffffffffffffffffffffffffffffffffffffffff1603610e125760006040517f1e4fbdf7000000000000000000000000000000000000000000000000000000008152600401610e099190611c14565b60405180910390fd5b610e1b816111d3565b50565b600080610e2a83610e47565b905060008082815260200190815260200160002054915050919050565b6000808290506000815103610e62576000801b915050610e6b565b60208301519150505b919050565b60006001905092915050565b6000804790506001546000808581526020019081526020016000205482610ea3919061231c565b610ead919061238d565b915050919050565b610ebd611318565b73ffffffffffffffffffffffffffffffffffffffff16610edb610a09565b73ffffffffffffffffffffffffffffffffffffffff1614610f3a57610efe611318565b6040517f118cdaa7000000000000000000000000000000000000000000000000000000008152600401610f319190611c14565b60405180910390fd5b565b7f000000000000000000000000000000000000000000000000000000000000000073ffffffffffffffffffffffffffffffffffffffff163073ffffffffffffffffffffffffffffffffffffffff161480610fe957507f000000000000000000000000000000000000000000000000000000000000000073ffffffffffffffffffffffffffffffffffffffff16610fd0611320565b73ffffffffffffffffffffffffffffffffffffffff1614155b15611020576040517fe07c8dba00000000000000000000000000000000000000000000000000000000815260040160405180910390fd5b565b61102a610eb5565b50565b8173ffffffffffffffffffffffffffffffffffffffff166352d1902d6040518163ffffffff1660e01b8152600401602060405180830381865afa92505050801561109557506040513d601f19601f8201168201806040525081019061109291906123d3565b60015b6110d657816040517f4c9c8ce30000000000000000000000000000000000000000000000000000000081526004016110cd9190611c14565b60405180910390fd5b7f360894a13ba1a3210667c828492db98dca3e2076cc3735a920a3ca505d382bbc60001b811461113d57806040517faa1d49a40000000000000000000000000000000000000000000000000000000081526004016111349190611a2b565b60405180910390fd5b6111478383611377565b505050565b7f000000000000000000000000000000000000000000000000000000000000000073ffffffffffffffffffffffffffffffffffffffff163073ffffffffffffffffffffffffffffffffffffffff16146111d1576040517fe07c8dba00000000000000000000000000000000000000000000000000000000815260040160405180910390fd5b565b60006111dd6112f0565b905060008160000160009054906101000a900473ffffffffffffffffffffffffffffffffffffffff169050828260000160006101000a81548173ffffffffffffffffffffffffffffffffffffffff021916908373ffffffffffffffffffffffffffffffffffffffff1602179055508273ffffffffffffffffffffffffffffffffffffffff168173ffffffffffffffffffffffffffffffffffffffff167f8be0079c531659141344cd1fd0a4f28419497f9722a3daafe3b4186f6b6457e060405160405180910390a3505050565b60007ff0c57e16840df040f15088dc2f81fe391c3923bec73e23a9662efc9c229c6a00905090565b6112da6113ea565b6112e38161142a565b50565b6112ee6113ea565b565b60007f9016d09d72d40fdae2fd8ceac6b6234c7706214fd39c1cd1e609a0528c199300905090565b600033905090565b600061134e7f360894a13ba1a3210667c828492db98dca3e2076cc3735a920a3ca505d382bbc60001b6114b0565b60000160009054906101000a900473ffffffffffffffffffffffffffffffffffffffff16905090565b611380826114ba565b8173ffffffffffffffffffffffffffffffffffffffff167fbc7cd75a20ee27fd9adebab32041f755214dbc6bffa90cc0225b39da2e5c2d3b60405160405180910390a26000815111156113dd576113d78282611587565b506113e6565b6113e561160b565b5b5050565b6113f2611648565b611428576040517fd7e6bcf800000000000000000000000000000000000000000000000000000000815260040160405180910390fd5b565b6114326113ea565b600073ffffffffffffffffffffffffffffffffffffffff168173ffffffffffffffffffffffffffffffffffffffff16036114a45760006040517f1e4fbdf700000000000000000000000000000000000000000000000000000000815260040161149b9190611c14565b60405180910390fd5b6114ad816111d3565b50565b6000819050919050565b60008173ffffffffffffffffffffffffffffffffffffffff163b0361151657806040517f4c9c8ce300000000000000000000000000000000000000000000000000000000815260040161150d9190611c14565b60405180910390fd5b806115437f360894a13ba1a3210667c828492db98dca3e2076cc3735a920a3ca505d382bbc60001b6114b0565b60000160006101000a81548173ffffffffffffffffffffffffffffffffffffffff021916908373ffffffffffffffffffffffffffffffffffffffff16021790555050565b60606000808473ffffffffffffffffffffffffffffffffffffffff16846040516115b19190612447565b600060405180830381855af49150503d80600081146115ec576040519150601f19603f3d011682016040523d82523d6000602084013e6115f1565b606091505b5091509150611601858383611668565b9250505092915050565b6000341115611646576040517fb398979f00000000000000000000000000000000000000000000000000000000815260040160405180910390fd5b565b60006116526112aa565b60000160089054906101000a900460ff16905090565b60608261167d57611678826116f7565b6116ef565b600082511480156116a5575060008473ffffffffffffffffffffffffffffffffffffffff163b145b156116e757836040517f9996b3150000000000000000000000000000000000000000000000000000000081526004016116de9190611c14565b60405180910390fd5b8190506116f0565b5b9392505050565b60008151111561170a5780518082602001fd5b6040517fd6bda27500000000000000000000000000000000000000000000000000000000815260040160405180910390fd5b6000604051905090565b600080fd5b600080fd5b600080fd5b600080fd5b6000601f19601f8301169050919050565b7f4e487b7100000000000000000000000000000000000000000000000000000000600052604160045260246000fd5b6117a38261175a565b810181811067ffffffffffffffff821117156117c2576117c161176b565b5b80604052505050565b60006117d561173c565b90506117e1828261179a565b919050565b600067ffffffffffffffff8211156118015761180061176b565b5b61180a8261175a565b9050602081019050919050565b82818337600083830152505050565b6000611839611834846117e6565b6117cb565b90508281526020810184848401111561185557611854611755565b5b611860848285611817565b509392505050565b600082601f83011261187d5761187c611750565b5b813561188d848260208601611826565b91505092915050565b600067ffffffffffffffff8211156118b1576118b061176b565b5b6118ba8261175a565b9050602081019050919050565b60006118da6118d584611896565b6117cb565b9050828152602081018484840111156118f6576118f5611755565b5b611901848285611817565b509392505050565b600082601f83011261191e5761191d611750565b5b813561192e8482602086016118c7565b91505092915050565b6000806040838503121561194e5761194d611746565b5b600083013567ffffffffffffffff81111561196c5761196b61174b565b5b61197885828601611868565b925050602083013567ffffffffffffffff8111156119995761199861174b565b5b6119a585828601611909565b9150509250929050565b6000819050919050565b6119c2816119af565b81146119cd57600080fd5b50565b6000813590506119df816119b9565b92915050565b6000602082840312156119fb576119fa611746565b5b6000611a09848285016119d0565b91505092915050565b6000819050919050565b611a2581611a12565b82525050565b6000602082019050611a406000830184611a1c565b92915050565b600060208284031215611a5c57611a5b611746565b5b600082013567ffffffffffffffff811115611a7a57611a7961174b565b5b611a8684828501611868565b91505092915050565b60008115159050919050565b611aa481611a8f565b82525050565b6000602082019050611abf6000830184611a9b565b92915050565b60008060408385031215611adc57611adb611746565b5b600083013567ffffffffffffffff811115611afa57611af961174b565b5b611b0685828601611868565b9250506020611b17858286016119d0565b9150509250929050565b611b2a816119af565b82525050565b6000602082019050611b456000830184611b21565b92915050565b600073ffffffffffffffffffffffffffffffffffffffff82169050919050565b6000611b7682611b4b565b9050919050565b611b8681611b6b565b8114611b9157600080fd5b50565b600081359050611ba381611b7d565b92915050565b60008060408385031215611bc057611bbf611746565b5b6000611bce85828601611b94565b925050602083013567ffffffffffffffff811115611bef57611bee61174b565b5b611bfb85828601611909565b9150509250929050565b611c0e81611b6b565b82525050565b6000602082019050611c296000830184611c05565b92915050565b611c3881611a12565b8114611c4357600080fd5b50565b600081359050611c5581611c2f565b92915050565b600060208284031215611c7157611c70611746565b5b6000611c7f84828501611c46565b91505092915050565b600081519050919050565b600082825260208201905092915050565b60005b83811015611cc2578082015181840152602081019050611ca7565b60008484015250505050565b6000611cd982611c88565b611ce38185611c93565b9350611cf3818560208601611ca4565b611cfc8161175a565b840191505092915050565b60006020820190508181036000830152611d218184611cce565b905092915050565b600081519050919050565b600082825260208201905092915050565b6000819050602082019050919050565b600082825260208201905092915050565b6000611d7182611c88565b611d7b8185611d55565b9350611d8b818560208601611ca4565b611d948161175a565b840191505092915050565b6000611dab8383611d66565b905092915050565b6000602082019050919050565b6000611dcb82611d29565b611dd58185611d34565b935083602082028501611de785611d45565b8060005b85811015611e235784840389528151611e048582611d9f565b9450611e0f83611db3565b925060208a01995050600181019050611deb565b50829750879550505050505092915050565b600081519050919050565b600082825260208201905092915050565b6000819050602082019050919050565b611e6a816119af565b82525050565b6000611e7c8383611e61565b60208301905092915050565b6000602082019050919050565b6000611ea082611e35565b611eaa8185611e40565b9350611eb583611e51565b8060005b83811015611ee6578151611ecd8882611e70565b9750611ed883611e88565b925050600181019050611eb9565b5085935050505092915050565b60006040820190508181036000830152611f0d8185611dc0565b90508181036020830152611f218184611e95565b90509392505050565b600060208284031215611f4057611f3f611746565b5b6000611f4e84828501611b94565b91505092915050565b7f4e6f2073686172657320666f72207468697320476974487562206163636f756e60008201527f7400000000000000000000000000000000000000000000000000000000000000602082015250565b6000611fb3602183611c93565b9150611fbe82611f57565b604082019050919050565b60006020820190508181036000830152611fe281611fa6565b9050919050565b7f496e76616c69642070726f6f6600000000000000000000000000000000000000600082015250565b600061201f600d83611c93565b915061202a82611fe9565b602082019050919050565b6000602082019050818103600083015261204e81612012565b9050919050565b7f4e487b7100000000000000000000000000000000000000000000000000000000600052601160045260246000fd5b600061208f826119af565b915061209a836119af565b92508282039050818111156120b2576120b1612055565b5b92915050565b600060408201905081810360008301526120d28185611cce565b90506120e16020830184611b21565b9392505050565b7f536861726520616d6f756e74206d75737420626520677265617465722074686160008201527f6e207a65726f0000000000000000000000000000000000000000000000000000602082015250565b6000612144602683611c93565b915061214f826120e8565b604082019050919050565b6000602082019050818103600083015261217381612137565b9050919050565b7f557365726e616d6520746f6f206c6f6e67000000000000000000000000000000600082015250565b60006121b0601183611c93565b91506121bb8261217a565b602082019050919050565b600060208201905081810360008301526121df816121a3565b9050919050565b60006121f1826119af565b91506121fc836119af565b925082820190508082111561221457612213612055565b5b92915050565b600060408201905061222f6000830185611c05565b61223c6020830184611b21565b9392505050565b6000819050919050565b600067ffffffffffffffff82169050919050565b6000819050919050565b600061228661228161227c84612243565b612261565b61224d565b9050919050565b6122968161226b565b82525050565b60006020820190506122b1600083018461228d565b92915050565b7f4e487b7100000000000000000000000000000000000000000000000000000000600052603260045260246000fd5b600060ff82169050919050565b60006122fe826122e6565b915060ff820361231157612310612055565b5b600182019050919050565b6000612327826119af565b9150612332836119af565b9250828202612340816119af565b9150828204841483151761235757612356612055565b5b5092915050565b7f4e487b7100000000000000000000000000000000000000000000000000000000600052601260045260246000fd5b6000612398826119af565b91506123a3836119af565b9250826123b3576123b261235e565b5b828204905092915050565b6000815190506123cd81611c2f565b92915050565b6000602082840312156123e9576123e8611746565b5b60006123f7848285016123be565b91505092915050565b600081519050919050565b600081905092915050565b600061242182612400565b61242b818561240b565b935061243b818560208601611ca4565b80840191505092915050565b60006124538284612416565b91508190509291505056fea26469706673582212206ba26733b496f34586bb8581d00a82cf53d451edd9c76ac0173edb6eb19cd36364736f6c63430008170033",
    "linkReferences": {},
    "deployedLinkReferences": {}
}